:02000002F0000C
:10F02000D08F00000E2050B4A004B00260DEAFF01C
:10F0300050D08F0000100051D08F2441140052C2D4
:10F040008F0000100052908081F552FAD08F350069
:10F050001000511761DEAFC85EDA8F000210001198
:10F06000D0EFBA4F00007EFB01EF92150000D0EF09
:10F07000AC4F000050FB00EF86180000DEAFA15E31
:10F08000FB00EF0D1C000001010101010101010164
:10F090000101010101010101010101010101010160
:10F0A0000101010101010101010101010101010150
:10F0B0000101010101010101010101010101010140
:10F0C0000101010101010101010101010101010130
:10F62000C00FC2085ED0AC0458D0AC0856D0AC0CA9
:10F6300057B0585AB0565994ADF9D057ADFAB45B9B
:10F64000325A50CF50003F83008C009D00AC00BA6E
:10F6500000CA00DA00F000FE000E011A0126013790
:10F66000013D015F0175019D01B701D501F7011948
:10F6700002370255028302A502B002C4028204CE00
:10F6800002E302EE021003410367038503A303BAFA
:10F6900003D103820482040404820482048204826B
:10F6A00004820421042F044304820482048204821D
:10F6B000048204820482048204820482045104824B
:10F6C0000467048204770431FF03D47EFB01EF3327
:10F6D000050000FB00EF9A3700009950523C525150
:10F6E000D0515004985950DD50FB01EFC236000054
:10F6F00031DC03FB00EFD40F00009A5051D0515081
:10F7000004C2035E90597EFB01EFBC0F000031BEC6
:10F7100003C2035E90597EFB01EFA80F000031AEDB
:10F72000033C5950DD50FB01EF7F370000995052E8
:10F730003C5251D0515004FB00EF101100003C50DE
:10F7400051D0515004C2025EB0597EFB01EF0A1144
:10F750000000317A03DD57FB01EF90370000316E76
:10F7600003DD57FB01EF48380000316203FB00EF77
:10F77000443500009950523C5251D05150043C8FB6
:10F7800022205004B4EF12340400B4EF0834040013
:10F79000B4EF0A3504009200EF1934040094EF141A
:10F7A000340400312903985950DD50FB01EFC63E67
:10F7B00000009059EFFE330400311303C3085D507D
:10F7C000DD50FB01CF190394A70C94A70ED47EDD66
:10F7D000579FEFA7400000FB03EFCE3A0000B05068
:10F7E0005B31EB02C3085D50DD50FB01CFF102DD60
:10F7F00057FB01EF5C420000B0505B31D102D057A3
:10F80000EFC6330400C3085D50DD50D47EDD57FBE6
:10F8100003EFA2420000B0505B31B302D0EFA93336
:10F82000040057D057ADFAC3085D50DD50DD01DD4F
:10F8300057FB03EF80420000B0505B319102C308D8
:10F840005D50DD50FB01CF9702DD02DD579FEF7366
:10F85000430000FB03EF523A0000B0505B316F02EF
:10F86000C3085D50DD50FB01CF7502D47EDD01DDA4
:10F8700057FB03EF8E0B0000B0505B315102C30801
:10F880005D50DD50FB01CF5702D47ED47EDD57FBA7
:10F8900003EF700B0000B0505B313302C3085D50C2
:10F8A000DD50FB01CF390294A70C94A70D94A70E4D
:10F8B00094A70FDD08DD579FEF79420000FB03EFAF
:10F8C000E8390000B0505B310502C3085D50DD50DF
:10F8D000FB01CF0B02DD02DD579FEFB7430000FBBA
:10F8E00003EFC6390000B0505B31E3013CEFAA32B0
:10F8F000040051D051500499EFBA32040050AB8F3C
:10F9000000FF50523C5251D0515004D057EFB53205
:10F91000040031BA0198EF9C320400507850015134
:10F92000A851EF7132040031A5013CEF68320400A8
:10F9300051D0515004C3085D50DD50FB01CFA001F0
:10F94000DD02DD579FEFCE430000FB03EF5B390084
:10F9500000B0505B31780191EF59320400EF55321D
:10F960000400131098EF4D32040050DD50FB01EFFE
:10F97000043D0000DD10DD57DDEF43320400FB03E2
:10F98000EF4D3E0000314701AB8F00FF5950B150A1
:10F990000F1A079059EF1E32040099EF1832040035
:10F9A00050AB8F00FF50523C5251D0515004C3080D
:10F9B0005D50DD50FB01CF2701DD01DD01DD57FB8F
:10F9C00003EF400A0000B0505B310301C3085D50F3
:10F9D000DD50FB01CF0901DD01D47EDD57FB03EFD4
:10F9E000220A0000B0505B31E500C3085D50DD50D5
:10F9F000FB01CFEB00DD57FB01EF2844000031CEC7
:10FA000000C3085D50DD50FB01CFD400DD57FB0182
:10FA1000EF8143000031B700B25959B2EF7B310496
:10FA20000050AB5059EF72310400B2EF683104005E
:10FA300050AB5059EF5F310400B2EF613204005017
:10FA4000AB5059EF58320400318400C3085D50DDDB
:10FA500050FB01CF8A00DD02D47EDD57FB03EFA30C
:10FA6000090000B0505B11673C5950DD50FB01EFBD
:10FA70000E4400001159D0EF4B310400EF2B31043C
:10FA800000D47EFB01EF7C010000FB00EF473E004D
:10FA9000003C5051D0515004DDEF29310400DD57B6
:10FAA000FB02EFA91000003C5051D0515004DD572B
:10FAB000FB01EF530500003C5051D0515004DD577D
:10FAC000FB01EFAF05000011063C8FFFFF500495CE
:10FAD000ADF9130490ADF8673C5B51D0515004046C
:10FAE000C001D0AC0456D0A6025790675090506623
:10FAF00090505895581307985850D750110798EFC1
:10FB0000B330040050DD50FB01EF6A3B000090EF82
:10FB1000A4300400679001A60104010143502F4D59
:10FB20002D36384B28746D292C2056657273696FF9
:10FB30006E20312E322C20436F70797269676874A1
:10FB40002028632920313938342C204469676974AE
:10FB5000616C20526573656172636800585858582B
:10FB60002D303030302D3635343332310001400005
:10FB70009FEF06F5FFFFC2025EB0227EFB02EFEBB5
:10FB80000C000094EF273004009EEF9030040050EA
:10FB9000D050EF84300400D050EF7930040090242E
:10FBA000EF0C30040094EF073004009001EF0130B7
:10FBB0000400D4EFF42F0400DD0DFB01EF5FFAFF2A
:10FBC000FFFB00EF7A0C0000D05056D0A60250D0B8
:10FBD00050EFCA2F0400D050EFCB2F0400C1EFBD6F
:10FBE0002F0400A60650D05051D051EFB43004007D
:10FBF000D051EFAD2F04009FEFD22F0400FB01EF97
:10FC0000A010000004010000C2045ED0AC0450B09B
:10FC100050ADFEB1ADFE021318B2EF792F040050C3
:10FC2000B2EF762F040051AB5150EF6D2F0400114D
:10FC30001A98EF7F2F04005078500151B2EF5A2FDD
:10FC4000040050AB5051EF512F0400B4EF472F0484
:10FC500000B4EF49300400B5ADFE130C94EF4D44F1
:10FC6000000094EF464400009200EF472F0400D0BC
:10FC7000EF2B2F0400EF2E2F0400D0EF24300400D0
:10FC8000EF1F2F04009FEF442F0400FB01EF121021
:10FC90000000FB00EFC709000004206572726F725C
:10FCA000206F6E2064726976652024000000DDAC50
:10FCB00004FB01EF363200009FAFDFFB01EF2C3277
:10FCC000000098EFEE2E0400509EA04151DD51FB44
:10FCD00001EF8230000004010000DDAC04FB01AF45
:10FCE000CBDD01FB01CF1EFF040D0A5741524E49E7
:10FCF0004E47202D2D20446F206E6F742061747448
:10FD0000656D707420746F206368616E6765206430
:10FD100069736B7324000A0D446F20796F75207727
:10FD2000616E7420746F3A202041626F72742028D3
:10FD300041292C20205265747279202852292400F0
:10FD40002C206F7220436F6E74696E756520776921
:10FD500074682062616420646174612028432924EE
:10FD6000003F2024000D0A240001C000D0AC045044
:10FD7000905056DDAC08FB01CF31FFDDEFA742000C
:10FD800000FB01EF663100009FAF8BFB01EF5C31A0
:10FD900000009556130A9FAFA7FB01EF4E310000FC
:10FDA0009FAFBEFB01EF44310000FB00EFC330000A
:10FDB000008B8FA050579FAFACFB01EF2E3100009E
:10FDC00091578F41132291578F4114079157031375
:10FDD00010112991578F43131691578F52131A11EF
:10FDE0001BDD01FB01CF1EFEDD01FB01CF17FE95E0
:10FDF000561304D00150041103D45004110211020F
:10FE000011860443502F4D204469736B2066696C42
:10FE100065206572726F723A202400206973207227
:10FE20006561642D6F6E6C792E24000D0A446F207D
:10FE3000796F752077616E7420746F3A2043686122
:10FE40006E676520697420746F20726561642F7716
:10FE500072697465202843292C206F722041626FDB
:10FE60007274202841293F202400C003C2045ED0C0
:10FE7000AC0456D0AC0850B050ADFED056579FAF32
:10FE800082FB01EF66300000B00858D6578B8F8098
:10FE90006750985051DD51FB01EFBA2E0000B75862
:10FEA000B5581202110211E3DD2EFB01EFA72E005F
:10FEB00000B00358D6578B8F806750985051DD5152
:10FEC000FB01EF912E0000B758B558120211021134
:10FED000E39FCF46FFFB01EF12300000DDEF46410C
:10FEE0000000FB01EF053000009FCF3EFFFB01EF5C
:10FEF000FA2F0000FB00EF792F00008B8FA05059E4
:10FF00009FCF61FEFB01EFE32F000091598F41135A
:10FF10001C91598F411407915903130A11489159A3
:10FF20008F4313101140DD01FB01CFD9FCDD01FB34
:10FF300001CFD2FC8A8F80A609DD02DD569FEFD566
:10FF40003D0000FB03EF6233000032ADFE50788FBE
:10FF5000FE5051325150DD50FB01EF993200003C10
:10FF60005051D051500411021103317CFF040D0A8D
:10FF700043502F4D204469736B20240072656164E7
:10FF800024007772697465240073656C656374245A
:10FF9000006368616E67652400010000C2045ED0E2
:10FFA000AC0450B050ADFE9FAFC4FB01EF3D2F003D
:10FFB000003CADFE50CF5000040C001D002E00365A
:10FFC00000470011439FAFB4DD01FB02CF9BFDD082
:10FFD0005051D05150049FAFA9DD01FB02CF8AFDE3
:10FFE000D05051D05150049FAF9FFB01CFE9FC9FEF
:10FFF000AF97D47EFB02CF71FDD05051D051500449
:020000020000FC
:020000040010EA
:100000009FAF8EFB01CFD0FC04010000D0AC0451A7
:10001000A3026152B152201307B1522113021104FD
:10002000D2005004B1521D150AB152251405A21474
:10003000521110B5521907B15209140211059A8FC5
:10004000FF5004325250D05053C05353C05053C08D
:100050005350D0E0AF3B1400A106325250D0505361
:10006000C05353C05053C05350D0A102E0AF3B1413
:1000700000D4500404010000D0AC0450AB8FFEFF4C
:100080006051B5511332D0A002EF1A2B0400D0A05A
:1000900006EF0E2B0400AB8FFDFF6051B551131618
:1000A000D0EF022B0400EFF52A0400D0EFF32A046E
:1000B00000EFEE2B04001110D0EFEA2A0400A0029A
:1000C000D0EFDE2A0400A006040101014000D0ACFC
:1000D0000451D0EFE92A04005299A2025492A10CD3
:1000E000508B50A20455985550325455C35507565D
:1000F00078565050B0505399A120503C5055CB8F5A
:1001000000FFFFFF55503254558E555678565050CB
:10011000A1535056325655D055500404C000C20465
:100120005ED0AC0456D0AC0850D0AC0C51B0505797
:10013000B051ADFEB5ADFE1323325751D05150C072
:100140005051C156515032A01051DD51FB01EF4BBF
:100150000700003C5051D05150041118325750C183
:1001600056105199416050AB8F00FF50523C525194
:10017000D05150040401C007C2045ED0AC0458D072
:10018000AC0856D0AC0C57D0AC1050B0565AB05743
:10019000ADFEB050598A8F80A80EB5ADFE131F3C3E
:1001A0005950DD50FB01EFF3060000325A52D05295
:1001B00051C05152C1585251B050A110110B325A76
:1001C00050C15810519059416004C007C2045ED01C
:1001D000AC0456D0AC0857D0AC0C50B056ADFE9025
:1001E00057ADFDB05058D0EFD52904005A3CADFEB4
:1001F0005998AA02507850595992ADFD518B51AA85
:100200000350985051C05159325850DD50DDEFB471
:10021000290400DD59FB03EF482F00003C5051D06A
:1002200051500404C007C2045ED0AC0456D0AC08E0
:1002300050D0AC0C519050ADFFB051ADFCB5ADFC01
:10024000133190A621517804515098A62251788FED
:10025000FC5152895250578B8FF0A62258C15858E2
:10026000509050588B8F7FA62350955013038801D0
:1002700058110B8B8FC0A60E5781A60C01589158B0
:100280001F15049458965791573F1504D0065004F3
:100290008B8FC0A60E5091575012308DA60C58511E
:1002A000985150D0EF182904005198A10452D2520D
:1002B00051D25052CB525150CB8FE0FFFFFF5051E3
:1002C000D55112079058A60CD45004DD56FB01EF0F
:1002D00080370000B1508FFE001B04D00350049003
:1002E000A60E5990A60C5A9057A60E9058A60CD45C
:1002F0007EDD569FEF85350000FB03EFAC2F00003D
:10030000B1508FFE001B2D95ADFF130C9059A60E1A
:10031000905AA60CD0045004DD08DD569FEF143827
:100320000000FB03EF832F0000B1508FFE001B0481
:10033000D0055004D45004040000D0AC0451B00FD8
:1003400052C1512053D75395631302110AB752B5C6
:10035000521202110211EED0EF6428040050B1A035
:10036000068FFF001B123C5250D00155835520547C
:10037000EF55545050B050523C5250D0EF402804EA
:10038000005498A40255C35507548E5455785550BF
:1003900050B0505299A10C50D0EF2328040054992A
:1003A000A40455B25554B25055AB555450AB8FE0E0
:1003B000FF5054A95254503C5054D054500404019E
:1003C000C000D0AC0456DD56FB01CF6BFFB05057D8
:1003D0003C575098A60C51D15051121399A60F506A
:1003E000AB8F00FF50523C5251D051500411163C7B
:1003F000575098A60C51D1505115079A8F80500430
:100400001103D4500404C00FC20C5ED0AC0456D00B
:10041000AC0850D0AC0C51905057B051ADFED0EF5D
:100420009D27040050AB8FFF00A006ADFC9557122E
:10043000248B8F7FA609509550131AD0EF7827048C
:100440000051D0A10E503CA00851DD51DD56FB02F9
:10045000EF15FAFFFFB5ADFE132BDD01985750DD08
:1004600050DD56FB03CFBCFDB050ADFAB0ADFA5035
:10047000B55013083CADFA51D05150048B8F80A673
:1004800023A620112091A6208F801219D47E985780
:1004900050DD50DD56FB03CF8AFDB5501304D0016B
:1004A000500494A62090A60FADF999A620503C5078
:1004B00051CB8F00FFFFFF51ADF4DD56FB01CFFFA5
:1004C000FE3C5051D1ADF451191395571304D0018E
:1004D00050048A8F80A60E81A62001ADF9DD56FB5F
:1004E00001CFE8FBB0505932ADFC50DD50325950CD
:1004F000DD50DD56FB03CF23FCB05058B558130C2C
:10050000B45B95571203B0015B31BF0095571304DC
:10051000D001500432ADFC50DD50B55913073259AB
:1005200050D7501102D450DD50DD56FB03CFECFB09
:100530003C5051DD51FB01EF24300000B05058B168
:10054000588FFFFF1204D00250043C5850DD503247
:10055000ADFC50DD50325950DD50DD56FB04CF1557
:10056000FCB0035BB1ADFE021261D0EF5726040070
:100570005AD0EF46260400EF4B2604009B8F80598B
:10058000B7593259509440FF3B260400B559120226
:10059000110211EC01B459D0EF242604005099A0A7
:1005A0000351B159511502111B325B50DD5098595E
:1005B00050DD503C5850DD50FB03CF0DFCB0015BCB
:1005C000B65911D3D05AEFFC250400325B50DD50F0
:1005D00098A62050DD503C5850DD50FB03CFEAFB7D
:1005E000B050ADFAB5ADFA120D90ADF9A60FB5AD9C
:1005F000FE120396A6203CADFA51D05150040401DE
:1006000000000195BC04120211109ABC0450DD5088
:10061000FB01CF8D00D6AC0411E904010000C20437
:100620005E01D4ADFCD1ADFC071502112CD0AC0499
:1006300050D01C5283522051EF525150509EEFE93E
:10064000390000519A416050DD50FB01AF547804ED
:10065000AC04AC04D6ADFC11CC040000D4500404AE
:100660000000FB00EF3B2400000400008B8F7F9F05
:1006700000000A2050955013059A8FFF5004D45063
:100680000404000001FB00AFE1B550130211021198
:10069000F48B8F809F04000A20509A5051D0515003
:1006A00004040000B0089F08000A20AB8FFF7F9F62
:1006B00000000A2050B5501302110211EE9BAC0449
:1006C0009F0C000A20040000040100000401000047
:1006D000D01A500404010000D4EFD2250400040114
:1006E00000009AAC0450D5501302110D9EEF9039C2
:1006F0000000EF312704001108D4EF29270400116E
:1007000000D0EF2127040051D05150040401000013
:100710003CAC04EF98250400040100003CAC04EF5D
:100720000827040004010000D0AC04EFB026040048
:1007300004010000C2085ED0EF7325040050D050C1
:1007400051DE419F0000000051C05051DE419F002A
:1007500000000052C05251C05150C150EFCB26048E
:100760000051D0515078075051D051ADF8D4ADFC64
:10077000D1ADFC8F7F0000001502111FC1EF5E2676
:100780000400ADFC50C1ADF8ADFC519EEFF73A004E
:10079000005290426160D6ADFC11D5D450040401E2
:1007A0000000C2085ED0EF0525040050D05051DE95
:1007B000419F0000000051C05051DE419F000000E9
:1007C0000052C05251C05150C150EF5D260400513B
:1007D000D0515078075051D051ADF8D4ADFCD1ADC7
:1007E000FC8F7F0000001502111FC1ADF8ADFC5059
:1007F0009EEF923A000051C1EFE3250400ADFC5298
:1008000090624160D6ADFC11D5D4500404010000C3
:100810009A8FFF5004040000D5FF0A260400120836
:100820003CAC0451D05150043CAC0451D05150C0A8
:100830005051C151FFEF250400503C6051D0515040
:10084000040400009EEF5238000050040401000030
:100850003CEF5624040051D0515004040000B0ACC9
:1008600004EF4624040004010000D45004040000F6
:10087000D450040400003CAC0850D0AC0451C75024
:100880005152C45250C25051B051BC0C3CAC0850F3
:10089000C750AC04523C5251D051500404010000E6
:1008A000C2045ED5EFFF370000181891EFFB370048
:1008B00000011209D001EFED3700001106D4EFE579
:1008C000370000D5EFDF37000012083CAC0451D0F0
:1008D000515004AB8F00FFAC045178085150AB8FDE
:1008E000FF00AC04523C5251D0085383532052EFC6
:1008F00053525151A95150ADFE3CADFE51D0515013
:1009000004040000DEEF16E7FFFF5EFB00CF4AFDA8
:10091000B050EF71220400FB00EF50F2FFFF3CEFFC
:100920006422040050D0085283522051EF5251509B
:10093000503C5051DD51C2025EB0207EFB02CFD54B
:1009400001AB8F00FFEF3E220400503C5051DD51BF
:10095000C2025EB00E7EFB02CFBB01FB00EF422164
:100960000000FB00AF9C04010000C15C0450CFB04C
:100970000000163100310036004600560069007C48
:10098000008F009F00A700CD00E000F300020112DD
:10099000012C013B015C0160016F017E0190019718
:1009A00001316A01FB00CF59FFFB00CFBCFCD0AC8A
:1009B00004513C50A10C315901FB00CFC4FCD0AC18
:1009C00004519A50A10C314901D0AC0450C2035ECD
:1009D00090A0047EFB01CFC9FC313601D0AC04509D
:1009E000C2035E90A0047EFB01CFDAFC312301D06C
:1009F000AC0450C2035E90A0047EFB01CFCBFC315F
:100A00001001FB00CFC7FCD0AC04519A50A10C31AF
:100A10000001FB00CFBFFC31F800D0AC0450C20392
:100A20005E90A0087ED0AC0450C2035E90A0047E0D
:100A3000FB02CFABFCD0AC0451D050A10C31D200A2
:100A4000D0AC0450C2025EB0A0047EFB01CFBEFC5D
:100A500031BF00D0AC0450C2025EB0A0047EFB01E6
:100A6000CFB7FC31AC00D0AC0450DDA004FB01CF0B
:100A7000B4FC319D00FB00CFB8FCD0AC04513C501D
:100A8000A10C318D00D0AC0450C2025EB0A0047E37
:100A9000FB01CF0BFDD0AC04513C50A10C1173FBFA
:100AA00000CF6AFDD0AC04513C50A10C1164D0AC15
:100AB0000450DDA008D0AC0450C2025EB0A0047E99
:100AC000FB02CF51FDD0AC04513C50A10C1143D0DE
:100AD000015004FB00CF6AFDD0AC0451D050A10CF2
:100AE0001130FB00CF67FDD0AC04513C50A10C117C
:100AF00021D0AC0450C2025EB0A0047EFB01CF5BEB
:100B0000FD110FFB00CF60FD1108D0015004D00192
:100B10005004D450040400003CAC0450D1503213B3
:100B200002110FDDAC08FB01CF3DFE3C5051D0510E
:100B30005004DDAC083CAC0850DD503CAC0450DD4A
:100B400050FB03EFD8EAFFFF3C5051D05150040452
:100B50000000C2105ED0AC04ADFCD0ADFC50D5A0FE
:100B6000041304D0015004D0ADFC50CB8FFF010022
:100B700000A008ADF0D1ADF08F00FE0F001B04D037
:100B8000015004D0ADFC50D4A00C3C8F0002ADF459
:100B9000D1ADF4ADF01F021131DDADF4C2025EB093
:100BA0001A7EFB02CF6FFFDDBDFCC2025EB0147E79
:100BB000FB02CF61FFB050ADFAB5ADFA1302110AD6
:100BC000C08F80000000ADF411C6B5ADFA1204D09C
:100BD000015004D0ADFC51D0A10C509ECF37FF6026
:100BE000D0ADFC51D0A10C50D4A004D0ADFC51D05C
:100BF000A10C50D0ADF0A008D0ADFC51D0A10C504C
:100C00003C8F0002A00CD0ADFC51D0A10C50D0AD57
:100C1000F0A010D0ADFC51D0A10C503C8F0002A030
:100C200014D0ADFC51D0A10C50C1ADF48F00FEFF2B
:100C3000FFA018D0ADFC51D0A10C50D0ADF4A01C39
:100C4000D0ADFC51D0A10C50D4A020D0ADFC51D0DF
:100C5000A10C50D0ADF4A024D0ADFC51D0A10C50CB
:100C6000D4A028DDAC08FB01CFBBFAD45004040D9E
:100C70000A556E68616E646C6564206578636570A2
:100C800074696F6E2E2052657374617274696E6739
:100C90002E0D0A0000009FAFD6FB01CF62F9FB00CA
:100CA000CF5FFC04000004010000D45004040000E5
:100CB000C22C5EB4ADE0C3205D50DD50C2025EB018
:100CC0003F7EFB02CF4FFED0ADE2ADF0D0ADE6AD42
:100CD000F49EEF61210400ADECC3145D50DD50C201
:100CE000025EB03B7EFB02CF2CFEB050ADDEB5AD58
:100CF000DE13083CADDE51D05150049EEF27230493
:100D000000ADD8C1ADF88F7C000000ADD490BDD847
:100D1000BDD495BDD8130891BDD82113021102117D
:100D20000CD6ADD4D6ADD81102110211E0C1ADF888
:100D30003050DD50C2025EB0017EFB02EFEF0500D5
:100D400000C1ADF88F5300000050DD50C2025EB00C
:100D5000027EFB02EFD7050000DDADF8C2025E9B0C
:100D60008F407EFB02CFAEFDB050ADDE3CADDE511C
:100D7000D051500404000056415800015355424DD3
:100D800049540055534552004552410052454E00CA
:100D90005459504500444952530044495200000000
:100DA000DD0DDD02FB02EF6BFDFFFFDD0ADD02FB67
:100DB00002EF60FDFFFF04010000D0AC0450D0AC96
:100DC0000851906061906152D650D65195521202EE
:100DD000110211EE04010000D0AC0451D0AC085255
:100DE00095611202111A9161621504D001500491AB
:100DF000616218063C8FFFFF5004D651D65211E0B5
:100E0000956213073C8FFFFF501102D45004040178
:100E10000000D0AC04509EEF542104005295EFC165
:100E200020040013219EEF1D22040051956112023F
:100E30001109906162D651D65211F1902062D652BA
:100E400094EF9E2004000195601307916021120425
:100E500011001109906062D650D65211EA946204D2
:100E6000C000C2045E9A8FFF7EDD20FB02EFA4FC6F
:100E7000FFFFB05057D47EDD19FB02EF96FCFFFF59
:100E8000B05056A08F410056FB00CF11FFB557134D
:100E90002CB157091B0F9031ADFC815726ADFD9049
:100EA00024ADFE1109815730ADFC9024ADFDC30483
:100EB0005D50DD50DD09FB02EF59FCFFFF3C565051
:100EC000DD50DD02FB02EF4BFCFFFFDD3EDD02FBF0
:100ED00002EF40FCFFFF0401C000D0AC0456D0ACD0
:100EE0000850B05057B15701121795EFC0310000AC
:100EF000130A95EF0021040012071100FB00CF5FD9
:100F0000FF019566130791662112041100111298D2
:100F10006650DD50D656DD02FB02EFF7FBFFFF11F6
:100F2000E1B557120DDD3FDD02FB02EFE6FBFFFFEF
:100F30001105FB00CF67FE04C001D0AC0456B457C6
:100F40003C5750D05051DE419F0000000051C0502E
:100F500051C05150D5E0A8501000120211483C5722
:100F600050D05051DE419F0000000051C05051C090
:100F70005150DDE0A8501000DD56FB02CF57FEB502
:100F800050121F3C5750D05051DE419F00000000CE
:100F900051C05051C051503CE0AC50100051D051A4
:100FA0005004B657119AB457B1571C1A123C5750F7
:100FB0009EEF92200400519141603A1204110011F9
:100FC00004B65711E3B15701122895EF7A200400B7
:100FD000122095EF8E200400121891EF6820040073
:100FE0008F40150E91EF5E2004008F501404D00541
:100FF0005004B15701121C91EF4B2004008F401593
:101000000C91EF412004008F50140211063C8FFF19
:10101000FF5004B1570113163C57509EEF27200490
:1010200000519141603A12063C8FFFFF50049FEF40
:10103000041E0400D47EFB02CFF502B55013063C1B
:101040008FFFFF5004B157011205B002571102B4CF
:10105000573C5750C1508F2840140051DD51FB01BF
:10106000CF6B02B55013063C8FFFFF500401B458FC
:10107000B1581C1A113C58509EEFCA1F04005195DC
:10108000416012041100111A3C58509EEFB71F0422
:1010900000519141601F14063C8FFFFF5004B65869
:1010A00011CED008500404010000D0AC045095606B
:1010B0001307916021120411001104D65011EF9012
:1010C0006051D650915121121F9560131B9001EF72
:1010D000DB2F000091602013021104D65011F5D0CF
:1010E00050EF4A1D0400113695EFC02F0000132861
:1010F00095EF4A1F040012099001EFB02F00001174
:101100001594EFA72F000095FF231D0400130790EF
:1011100001EF992F0000110694EF912F00000401B8
:10112000C001D0AC0457D0AC0856D756C057569023
:101130008F80EF891F04009FEF831F0400DD0AFBEF
:1011400002EFD0F9FFFF95EF751F0400130E91EF2A
:101150006E1F04003B1305FB00CF42FC99EF5F1F9D
:101160000400503C5051CB8F00FFFFFF5150C15045
:1011700002519EEF481F040050900A406191EF3FDA
:101180001F04003B1207900AEF351F04009EEF2F4B
:101190001F04005891682013079168091302110475
:1011A000D65811F00191680A1307D1575619041146
:1011B00000113D906850D05751D65791688F6015F7
:1011C0000991688F7A1403822050905061916820B1
:1011D00013079168091302111301D658916820135F
:1011E000079168091302110211F01102D65811B5C6
:1011F000946704010000D0AC04519161211306955D
:1012000061120411001104D65111EF0191612113F3
:101210000C916120130791610913021104D6511139
:10122000EBD0515004044000D0AC04509EEF161E89
:10123000040051B452B1528F77001B02110894611F
:10124000D651B65211EFB4529560130C9160211330
:1012500007B152031B0411001172B45391602113A2
:1012600010916020130B9160091306956012041110
:10127000001123B1531C1A1A3C53543C5255C55506
:101280001E56C056549EEFBD1D0400559060456427
:10129000B653D65011C63C53543C5255C5551E56F4
:1012A000C056549EEF9F1D040055944564B652915C
:1012B0006020130791600913021102D650B1520148
:1012C0001207D050EF5F1D0400317CFF04010000C5
:1012D000D0AC04519161201404D001500401B452E7
:1012E000B1520F1B0211183C52509EEF872F000085
:1012F00053916143601204D0015004B65211E1D4FD
:10130000500404014000D0AC045691662A1204D067
:101310003F5004DD56FB01AFB5B550120DB6EF11CD
:101320001D0400986651D0515004D020500404018F
:10133000C00FC2045ED0AC0456D0AC0857B05658AB
:101340009467B00CADFEB1ADFE231B02110C3CAD99
:10135000FE50944760B6ADFE11EC01B001ADFEB198
:10136000ADFE0B1B02110D3CADFE5090204760B648
:10137000ADFE11EB95EF661B04001305903F5A116B
:101380000390205AB4EFAA1C0400D057593CEFA197
:101390001C0400503C5851C5511E52C052509EEF83
:1013A000A41C0400519541601235D659B0015BB1BF
:1013B0005B0B1B021109905A69D659B65B11F0D428
:1013C0007EDD19FB02EF4CF7FFFF8150016795EFBF
:1013D0000C1B04001306D00B50041103D450043C22
:1013E000EF4F1C0400503C5851C5511E52C15201D0
:1013F00051C051509EEF4E1C0400519141603A1271
:101400006C3CEF2D1C0400503C5851C5511E52C07D
:1014100052509EEF301C0400518141608FC069A082
:1014200002EF0E1C04003CEF081C0400503C585115
:10143000C5511E52C052509EEF0B1C0400519541E5
:10144000601228C1570159B0015BB15B0B1B02113F
:1014500009905A69D659B65B11F095EF801A0400CD
:101460001306D00B50041103D45004110FD47EDDA9
:1014700019FB02EF9EF6FFFF81500167D05759D646
:1014800059B0015BB15B081B0211293C5851C55191
:101490001E503CEF9C1B040051C1518F284014008A
:1014A00052C05250DD50FB01CF59FE905069D659C1
:1014B000B65B11D0013C5851C5511E503CEF721B18
:1014C000040051C1518F2840140052C05250DD50C9
:1014D000FB01CFF9FDB55013021108B6EF531B0401
:1014E0000011D23CEF4B1B0400503C5851C5511E1B
:1014F00052C052509EEF4E1B0400519141602E127B
:1015000039B6EF2D1B0400B0015BB15B031B021168
:10151000293C5851C5511E503CEF161B040051C1C7
:10152000518F2840140052C05250DD50FB01CFD3E0
:10153000FD905069D659B65B11D0B4ADFEB0015BD9
:10154000B15B0B1B0211103C5B509147603F1203D3
:10155000B6ADFEB65B11E93CADFE51D0515004046E
:10156000000095EF1C1B040013209FEF782C000057
:10157000DD09FB02EF9DF5FFFFD47E9FEF031B0407
:1015800000FB02CF52F9D0015004D45004040000F3
:10159000B4513C51509EEFCB1A0400529542601357
:1015A000123C51509EEFBC1A0400529142603A1214
:1015B0000411001104B65111D93C5152D0525004BB
:1015C00004010000C2045ED0AC0450B050ADFE3C3B
:1015D000ADFE509EEF8D1A0400519141603A122CDD
:1015E000B1ADFE01121691EF7A1A04008F40150C6E
:1015F00091EF701A04008F5014021110D47E9FEFE7
:10160000621A0400FB02CFCFF8D45004D00150047A
:101610000401C00FC2085ED0AC0450B05056B4AD47
:10162000FA94ADFFFB00CF37FFB550130104FB0068
:10163000CF5BFFB0505A3C5A50DD50FB01AF83B531
:10164000501201049FEFEE170400DD01FB02CFDF13
:10165000FC99EFE1170400ADFCA08F4000ADFC9FAA
:10166000EFD3170400DD11FB02EFA8F4FFFFB05029
:1016700057B1578FFF00120F9FEFDF2A0000DD09DF
:10168000FB02EF8FF4FFFF3C5750C5502051B05183
:1016900059B659B458B1578FFF001203315C01B5E8
:1016A00056131A3C5950C15009519EEF101A0400AC
:1016B000508B8F7F406151955112201100B5561209
:1016C0003C3C5950C15009519EEFF2190400508B17
:1016D0008F7F40615195511224110095ADFF130881
:1016E000FB00CFB9F694ADFFB558120F3CADFC50DE
:1016F000DD50DD02FB02EF1BF4FFFF111FB001AD57
:10170000FADD12FB01EF0CF4FFFFB050573C5750CD
:10171000C5502051B05159B6593179FF3C5750C589
:10172000502051B05157B657DD3ADD02FB02EFE3CE
:10173000F3FFFFDD20DD02FB02EFD8F3FFFFB00176
:101740005AB15A0B1B021134B15A09120BDD20DDBC
:1017500002FB02EFBEF3FFFF3C57509EEF5F190400
:1017600000518B8F80416050985051DD51B657DD4C
:1017700002FB02EF9EF3FFFFB65A11C5DD20DD022A
:10178000FB02EF8FF3FFFFDD12FB01EF86F3FFFF9C
:10179000B05057B1578FFF001202115FB6583C5737
:1017A00050C5502051B05159B659B158051249B4DD
:1017B00058B556131A3C5950C15009519EEFFE18A6
:1017C0000400508B8F7F406151955112201100B55C
:1017D0005612213C5950C15009519EEFE0180400A7
:1017E000508B8F7F406151955112091100FB00CF42
:1017F000ACF511049001ADFF319AFEB5ADFA132995
:10180000FB00CF99F5B55613119FEFE9280000DDD5
:1018100009FB02EFFEF2FFFF110F9FEFDC28000033
:10182000DD09FB02EFEDF2FFFF04400095EF3418F5
:101830000400121C9FEFD8280000DD09FB02EFD343
:10184000F2FFFFDD1D9FEF1B180400FB02CFD0F855
:10185000FB00CF0BFDB550130104FB00CF2FFDB0F3
:1018600050563C5650DD50FB01CF56FDB55012018D
:10187000049FEFC1150400DD01FB02CFB2FAB050A6
:1018800056B556130331830095EFD8170400137B28
:101890009FEFA2150400DD0FFB02EF77F2FFFFB10F
:1018A00050031A679FEF8E150400DD14FB02EF63EF
:1018B000F2FFFFB5501302113EB456B1568F7F00B0
:1018C0001B0211313C56509EEFF317040051914119
:1018D000601A131B3C56509EEFE3170400519841C9
:1018E0006050DD50DD02FB02EF29F2FFFF11021113
:1018F00004B65611C611AD98EF3B15040050DD50EB
:10190000DD25FB02EF0DF2FFFF112C95EF551704BB
:10191000001324B55613119FEF49280000DD09FB81
:1019200002EFF0F1FFFF110F9FEF2F280000DD09FC
:10193000FB02EFDFF1FFFF04C003C2245EB4599540
:10194000EF21170400124B9FEFD7270000DD09FBA2
:1019500002EFC0F1FFFFDD1D9FEF44170400FB0203
:10196000CFBDF795EF391704001201049FEFC4278C
:101970000000DD09FB02EF9BF1FFFFDD1D9FEFE3A0
:10198000160400FB02CF98F7903DEFF516040031E6
:10199000D300B4563C56509EEFC9160400519141F5
:1019A000603D13113C56509EEFB91604005195410D
:1019B00060120411001104B65611D93C56509EEF26
:1019C000A2160400519141603D1226B556131D3CEC
:1019D0005650C15001519EEF8A1604005095406147
:1019E000130A95EF9C16040012021103B00159115D
:1019F0001E91EF8D1604003D121295EF851604001E
:101A0000120A95EF9A16040012051100B00159B59B
:101A10005912523C56509EEF4A16040051914160B3
:101A20003D12423C56509EEF3A16040051944160DC
:101A3000B656B4573C57509EEF6516040051C0513E
:101A4000503C56519EEF1C1604005290426151903A
:101A50005160B656B65795511202110211D6903DFB
:101A6000EF1F16040001B00157B157031B0331AB40
:101A700000B4583C58503C5751C5511E52C05250AA
:101A80009EEFC2150400519141603A131B3C58501F
:101A90003C5751C5511E52C052509EEFA81504002C
:101AA00051954160120411001104B65811C5B15886
:101AB000011B1D3C58503C5751C5511E52C052503D
:101AC0009EEF82150400519141603A1203B0015912
:101AD00001B456B1560F1B02113C3C5751C5511E63
:101AE000509EEF61150400513C56529EEF86270030
:101AF000005391416043621219D47E3C5750C55047
:101B00001E51C1518F2840140050DD50FB02CFC739
:101B1000F304B65611BDA00257314DFFB55913035A
:101B200031390195EF3D1504001203312E0195EF77
:101B30006E1504001203312301C3245D50DD50DD16
:101B400001FB02CFEAF7B050569FEFE9120400DD27
:101B500003FB02CFDAF7B05057B556130331ED004F
:101B6000B557130331E60091ADDCEFC91204001341
:101B70003B91EFF01404003A121391EF2315040087
:101B80003A130A90ADDCEFAD120400111F91EFD4AF
:101B90001404003A131391EF071504003A120A9047
:101BA000EF93120400ADDC1103B0015995ADDC15C3
:101BB0000891ADDC1014021103B00159B559122778
:101BC000C3245D50DD50DD11FB02EF47EFFFFFB195
:101BD000508FFF0013119FEF6C250000DD09FB0201
:101BE000EF31EFFFFF1164B458B01056B156231B0C
:101BF00002111C3C56509EEF3C120400513C5852BE
:101C0000C3245D539043624160B658B65611DD95CA
:101C1000EF23120400190B91EF1B1204000F1402A2
:101C20001103B00159B55912229FEF09120400DDCA
:101C300017FB02EFDEEEFFFFB550130F9FEF1B25E2
:101C40000000DD09FB02EFCBEEFFFF110F9FEF134A
:101C5000250000DD09FB02EFBAEEFFFFB559130FB7
:101C60009FEF17250000DD09FB02EFA7EEFFFF0441
:101C7000400095EFEE130400121C9FEF9224000029
:101C8000DD09FB02EF8DEEFFFFDD1D9FEFD5130495
:101C900000FB02CF8AF495EFCA130400120104FB83
:101CA00000CFBCF8B550130104FB00CFE0F8B050F2
:101CB000563C5650DD50FB01CF07F9B550120304D6
:101CC000111F91EF9F1304003A121695EF9713041A
:101CD00000120ED47E9FEF8B130400FB02CFF8F1AD
:101CE000049FEF51110400DD01FB02CF42F6B0501A
:101CF00056B556136895EFB323000012609FEF9717
:101D0000240000DD09FB02EF0AEEFFFFD47EDD01B7
:101D1000FB02EFFFEDFFFF9050EF6613040090EF22
:101D2000601304005091EF591304008F60150D915A
:101D3000EF4F1304008F7A14038220509050EF412C
:101D4000130400FB00CF56F091EF361304008F4EC2
:101D5000130B91EF2C1304008F5913010491EF2101
:101D60001304008F4E13229FEFCB100400DD13FBF2
:101D700002EFA0EDFFFFB550130F9FEFDD23000032
:101D8000DD09FB02EF8DEDFFFF04400095EFD4125B
:101D90000400121C9FEF10240000DD09FB02EF730A
:101DA000EDFFFFDD1D9FEFBB120400FB02CF70F3C0
:101DB00095EFB01204001204D0015004FB00CF9F35
:101DC000F7B5501304D001500491EF971204002F7F
:101DD000150B91EF8E1204003914021103D4500434
:101DE00099EF8012040056A23056B156091B03D455
:101DF000500495EF6F12040013253C5650D05051FB
:101E00007E419F0000000051C05051C05150B05061
:101E10005699EF5012040050A3305051A05156B1C2
:101E2000560F1A1895EF3E12040012103C5650DD62
:101E300050DD20FB02EFDCECFFFF1103D45004D097
:101E40000150040453554200C003C20C5ED0AC04E0
:101E500050B050ADFE94EF851004009001EF9A1140
:101E6000040094ADFD94ADFA94ADFB94ADFC9A8F53
:101E7000FF7EDD20FB02EF9BECFFFFB050EFA211D5
:101E80000400D47EDD19FB02EF89ECFFFFB050EFB8
:101E90009C110400B1ADFE0A1204B4561103B00146
:101EA000569FEF910F04003C5650DD50FB02CF7F50
:101EB000F4B05056B55613129FEFA8220000DD096A
:101EC000FB02EF4FECFFFFD450049EEFE121000036
:101ED00059D0695891EF670F0400201303311B029A
:101EE00095B9001202110B94A90994A908C00A59C6
:101EF00011EE98EF400F040050C3015051DD51DD49
:101F00000EFB02EF0EECFFFF903FEF290F04009451
:101F1000EF2F0F04009FEF1D0F0400DD11FB02EFF8
:101F2000F2EBFFFFB05056B1568FFF00130795AD8F
:101F3000FD12021103310B013C5650C5502051B027
:101F400051563C56509EEF75110400519541601357
:101F50001D3C56509EEF6611040051984160503C64
:101F6000EFBF10040051D15051130331C600B00926
:101F700057B1570B1B02112B3C56503C5751C051C7
:101F8000509EEF39110400513C56523C5753C053F8
:101F9000529EEF29110400538B8F8043624160B63B
:101FA0005711CE3C5650C1500C519EEF10110400F9
:101FB000509440619EEFF72000005995B90012023D
:101FC00011729FEF790E0400DD69FB02CFE9ED3C51
:101FD0005650C1508FA140140051DD519FEF570E54
:101FE0000400FB02CFEFEDB55012449001ADFA3C76
:101FF00056509EEFC810040051984160503CEF21AC
:1020000010040051D1505112069001A908110490FA
:1020100001A909B1ADFE0A1216DD58DD69FB02CF38
:10202000B4EDB550120995A90813049001ADFDC097
:102030000A591187DD12FB01EFD9EAFFFFB05056B4
:1020400031E4FE95ADFA1237B1ADFE07120F9FEFE6
:1020500067210000DD09FB02EFB9EAFFFF9001EF05
:102060007C0E040094EF920F04003CEFC00F0400BC
:1020700050DD50DD0EFB02EF9AEAFFFFD45004B1B1
:10208000ADFE0A120F9FEFAD0D0400D47EFB02CF10
:102090009EF2110D9FEF9E0D0400DD01FB02CF8F1C
:1020A000F29EEF0A2000005995B9001202112A95FC
:1020B000A908120795A90912021119B1ADFE0A1259
:1020C0000211169FCF7DFDDD69FB02CF08EDB550F3
:1020D00012021105C00A5911CF95B900131D95A917
:1020E00008120BD47EDD20FB02EF28EAFFFF9FEFF2
:1020F0004D0D0400DD69FB02CFBDEC3CEF2F0F045A
:102100000050DD50DD0EFB02EF09EAFFFF11033145
:1021100004019FEF200D0400DD0FFB02EFF5E9FF46
:10212000FFB150031B0331CA00B00957B1570B1B55
:1021300002111F3C57509EEFFC0C0400513C5752BB
:102140009EEFF20C0400538B8F8043624160B657C0
:1021500011DA91EFE90C04008F53130331860091DB
:10216000EFDD0C04008F55127C91EFD40C04008F2E
:102170004212729001ADFB9A8FFF7EDD20FB02EFD1
:1021800092E9FFFFB050EFAD0E040095EF1D1F0068
:102190000013099001EFA20E040011079001EF89CE
:1021A0000E040001B456B156231B02111D3C5650BB
:1021B0009EEF4A0E0400513C56529EEF780C0400EC
:1021C000539043624160B65611DCB1ADFE0A12066F
:1021D00094EF0E0D04009001EFD11E000094EF5D0E
:1021E0000E0400110AB1ADFE0713049001ADFC11FD
:1021F0002511209A8FFF7EDD20FB02EF16E9FFFFFD
:10220000B55012041110110BD47EDD20FB02EF0338
:10221000E9FFFF31F7FE95ADFC120331B600DDEFAB
:10222000D00D0400FB01CF7FEE95ADFA12289EEF92
:102230007D1E00005995B9001202111A9FEFFF0B85
:102240000400DD69FB02CF8DEBB5501204110711BC
:1022500003C00A5911DF95B9001307D0A904ADF4E2
:1022600011089EEF40EAFFFFADF4DDEF840D04009E
:10227000FB01BDF4B050513C5150D150021324D158
:1022800050021407D150011309113AD150031324FD
:1022900011339FEF661F0000DD09FB02EF75E8FFB9
:1022A000FF11319FEF7D1F0000DD09FB02EF64E8A5
:1022B000FFFF11209FEF881F0000DD09FB02EF5395
:1022C000E8FFFF110F9FEF981F0000DD09FB02EFF1
:1022D00042E8FFFF95ADFB1215B1ADFE07120F9F4F
:1022E000EFD61E0000DD09FB02EF28E8FFFF3CEF00
:1022F000300D040050DD50DD20FB02EF16E8FFFF3B
:102300009001EFD90B040094EFEF0C040094EF9CC4
:102310001D000095ADFB120795ADFC12021104D013
:10232000015004D45004040100009FEFD00C0400BD
:10233000DD14FB02EFDDE7FFFFB550130A9001EF5C
:10234000FC0C0400D45004D001500404C00FC20897
:102350005ED0AC0458D0AC0856D0AC0C57B0585A2C
:10236000B05659B0EFDB0C0400ADFEB15A8F7F00C0
:102370001B11B45AFB00AFB0B55012073C5A51D0F4
:102380005150043C5A509EEFD40A040051914160D0
:102390002F14033128013C5A509EEFC10A0400510A
:1023A0009141603915033115013C5A509EEFAE0A38
:1023B000040051994160ADFCA230ADFCD057ADF89E
:1023C000D0ADF851906150D6ADF891508F53125C5A
:1023D000D0ADF852906250D6ADF891508F55124C56
:1023E000D0ADF851906150D6ADF891508F42123C6B
:1023F000D0ADF852906250D6ADF891508F4D122C5E
:10240000D0ADF851906150D6ADF891508F49121C63
:10241000D0ADF852906250D6ADF891508F54120C56
:10242000D0ADF8509160201203B6ADFCD057ADF896
:10243000B0015BB15BADFC1B02112AD0ADF851912C
:102440006120130AD0ADF8529562120411001105F3
:10245000D6ADF811E6D0ADF8509160201203D6AD9C
:10246000F8B65B11CE01D0ADF8519161201312D0B6
:10247000ADF8529562130AB1ADFE8F7F001B0411B7
:10248000001137B15901121B3CADFE509EEF560AA8
:10249000040051D0ADF85290624160D6ADF8B6ADAF
:1024A000FE1115D0ADF851986150DD50D6ADF8DD74
:1024B00002FB02EF5EE6FFFF11ACB65A1136B159CE
:1024C0000112143CADFE509EEF1B0A0400519024F3
:1024D0004160B6ADFE110BDD24DD02FB02EF34E6F8
:1024E000FFFF3C5A509EEF75090400519141602452
:1024F0001202B65AB0ADFEEF480B0400B15A8F7FFE
:10250000001B07B45AFB00CF1EFE3C5A51D051505D
:102510000404C003D0AC0456D0AC0857B05658B42D
:1025200059FB00CF3AE9B1588F7F001A223C58502E
:102530009EEF2A090400519141601A13123C585031
:102540009EEF1A090400519141600D12041100110F
:10255000423C58509EEF06090400519141602412FC
:1025600015B658DD57D47E3C5850DD50FB03CFDB09
:10257000FDB05058111B3C58509EEFE1080400512B
:1025800098416050DD50B658DD02FB02EF85E5FF53
:10259000FF1193B1588F800012303C58509EEFBD10
:1025A000080400519141601A13203C58509EEFAD31
:1025B000080400519141600D1310B458FB00CF671F
:1025C000FDB5501203B00159112D3C58509EEF8DAE
:1025D000080400519141600D1213A00258B1588FA8
:1025E0007F001B07B458FB00CF3DFD11079001EFA2
:1025F0004C0A0400B00159B559130211033126FFEA
:102600003C5851D051500404C00FD0AC0456B458BB
:10261000B0EF2E0A04005A95EF230A04001229B1E4
:10262000588F7F001A223C5A509EEF310804005107
:102630009141600D13123C5A509EEF210804005145
:1026400091416021120511003163013C5A509EEF07
:102650000C0804005198416050CF5009327B0008AB
:10266000012301230123012301230123012301234A
:102670000123012301230123012301230123011A43
:1026800001230123012301230123017B00230123D3
:10269000012301E500230123012301230123012359
:1026A000012301230123012301230123012301230A
:1026B00001230123012301230123012301230123FA
:1026C00001690031BA00DD563C5A50DD50FB02CFA3
:1026D00040FEB0505A31D300B558131D3C58509E9F
:1026E000EF03080400513C5A529EEF710704005357
:1026F0009043624160B65AB6580101B15A8F7F00CB
:102700001A223C5A509EEF55070400519141602017
:1027100013143C5A509EEF45070400519141600943
:10272000130411001104B65A11D1B15A8F7F001B46
:102730000FB45AFB00CFF0FBB5501202110211BAD0
:102740001169B65AB058EFF9080400DD56DD013CB6
:102750005A50DD50FB03CFF3FBB0505AB0EFE20804
:102760000400581146B65AB15A8F7F001B07B45A5D
:10277000FB00CFB3FB11349001EFC2080400112B12
:102780003C58509EEF5F070400513C5A529EEFCDDB
:10279000060400539043624160B65AB658B15A8F4E
:1027A0007F001B07B45AFB00CF7DFB3169FE3C5A0A
:1027B000509EEFA9060400519141600D13123C5A3E
:1027C000509EEF990604005191416021130211754A
:1027D00001B15A8F7F001A323C5A509EEF7F060497
:1027E00000519141600D13243C5A509EEF6F060436
:1027F00000519141600A13143C5A509EEF5F060449
:10280000005191416021130411001104B65A11C105
:10281000B15A8F8000120FB45AFB00CF0AFBB5509B
:102820001202112111193C5A509EEF310604005139
:102830009141601A12079001EF030804001106117C
:10284000021102118CB05AEFF80704000401C00114
:10285000D0AC0456B457B1578F80001B0211113C05
:1028600057509EEF8006040051944160B65711E620
:102870009A8FFF7EDD20FB02EF99E2FFFFB05058F8
:102880003CEFB207040050DD50DD20FB02EF84E294
:10289000FFFF9FEFC8050400DD1AFB02EF75E2FFA2
:1028A000FF95EF85070400120A95EF8D07040012CB
:1028B000021127B457B1578F7F001B0211113C57EB
:1028C000509EEF9905040051944160B65711E6FB04
:1028D00000CF54FAB4EF6A07040095EF60070400D4
:1028E0001207DD56FB01CF1FFD01B457B1578F7F93
:1028F000001B0211453C57509EEFEA050400513C75
:1029000057529EEFE005040053904362523C5753E8
:102910009EEFD2050400549144638F6015143C5718
:10292000539EEFC1050400549144638F7A140382CF
:10293000205290524160B65711B29FEF80070400B9
:10294000DD1AFB02EFCDE1FFFF3C5850DD50DD20EA
:10295000FB02EFBFE1FFFF04C001D0AC0456DD561F
:10296000FB01CFD3E53C5051CF51000917002B009C
:1029700033003B0043005E0077002A011001210074
:10298000311301D47EFB01CF88EC311601DD01FB50
:1029900001CF7EEC310C01FB00CF8EEE310401FB48
:1029A00000CF94EF31FC00FB00CFC4F231F400FB08
:1029B00000CFD6F3B550120F9FEF12180000DD09BB
:1029C000FB02EF4FE1FFFF31D90098EF78060400DA
:1029D000509EA0BF51DD51DD0EFB02EF36E1FFFF3F
:1029E00031C000B0075895EF7A0604001303318315
:1029F000009FEF1B170000DD09FB02EF16E1FFFF50
:102A00009A8F7F7E9FEF56040400FB02CF11E7B43C
:102A1000573C57509EEF46040400519141602013EB
:102A2000163C57509EEF3604040051954160130741
:102A3000B1571C1B041100111D3C57509EEF24067A
:102A40000400513C57529EEF14040400539043621B
:102A50004160B65711BB3C57509EEF07060400512A
:102A6000944160B55713099001EF760404001102F8
:102A70001131110694EF6A0404001103B00A583CA6
:102A80005850DD50FB01CFBFF3B55013021114B104
:102A900058071202110DD47E9FEFAA050400FB0215
:102AA000CF35E40440009001EF330404009FEF0DA4
:102AB000060400DD1AFB02EF5AE0FFFF95EF3A052E
:102AC0000400132A3CEF6605040050DD50DD0EFBC8
:102AD00002EF40E0FFFF3CEF4805040050DD50DD11
:102AE00020FB02EF2EE0FFFF94EF0E050400D5EF70
:102AF000B80004001323C1EFB0000400015698FF92
:102B0000A800040050CB8F00FFFFFF505194466196
:102B1000D4EF9600040031AC0095EF90150000133F
:102B20006495EF8715000013409EEFB9030400562B
:102B30009FEF3A040400FB01CF13FD9566130211C9
:102B40002695EFF90404001311D0EFE102040056BA
:102B500094EF58150000110F110B9FEF10040400A3
:102B6000FB01CFE9FC11D41107D0EFC102040056DC
:102B700094EF3915000095661309DD01DD56FB025F
:102B8000CF55E31140FB00CFD6E29EEF4801040091
:102B90005695EF19150000131D95EF590404001305
:102BA00015DD019FEF2F010400FB02CF2AE394EF14
:102BB00044040400110F9A8F807E9FEF18010400D7
:102BC000FB02CF5BE5019566120331EA00D056EFB8
:102BD00020040400DD56FB01CF4BE695EF670404AB
:102BE00000131491EF5F0404003B130B9FEF560496
:102BF0000400FB01CF61FD95EFB1140000120DDD63
:102C000056FB01CFEEE5D05056319B009EEFD60229
:102C100004005695EF13040400120A95EF1B0404F8
:102C2000001202115395EFB9020400130D9FEF2D0E
:102C3000020400FB01CFD8E1110BDDEFB403040067
:102C4000FB01CFCBE195EFE10304001312DDEFA10F
:102C5000030400FB01CF9CE5D050EFD10104009F9D
:102C6000EF0B030400FB01CFE4FB94EFCC03040063
:102C700094EFB603040011029466019566130211E5
:102C80002695EFB90304001311D0EFA101040056FB
:102C900094EF18140000110F110B9FEFD0020400E5
:102CA000FB01CFA9FB11D495661309DD01DD56FBAD
:102CB00002CF24E2310FFF04000095EFF0FE030085
:102CC000120FFB00EFA1D9FFFFB0505198515011E6
:102CD00003D001500404C0009457FB00EF89D9FFD2
:102CE000FFB5501371FB00EF96D9FFFF905056903F
:102CF00056509150031209DD02FB01EF06CFFFFF92
:102D000091561312059001571144915611120494D3
:102D100057113B9156101216945095EF92FE0300F6
:102D200012039001509050EF86FE0300112091EFA6
:102D30007CFE03008F7D1416D0EFD9FE0300509067
:102D40005660D6EFCFFE030096EF62FE0300955764
:102D500012021102118F04014000D0AC04509050B7
:102D600056FB00CF70FFC2035E90567EFB01EF2F33
:102D7000D9FFFF95EF39FE0300130DC2035E905695
:102D80007EFB01EF3ED9FFFF995650B1501F1B0843
:102D9000B6EF1EFE0300111891560D1208B4EF1184
:102DA000FE0300110B9156081206B7EF04FE030054
:102DB00004014000D0AC0450905056915609121AAC
:102DC000DD20FB01AF92AB8FF8FFEFE5FD03005074
:102DD000B5501202110211E8110A985650DD50FB4D
:102DE00001CF74FF04014000D0AC045090505691C4
:102DF0005609120B985650DD50FB01AFB5111F99C3
:102E00005650B1501F1A0D9A8F5E7EFB01CF48FFBE
:102E1000888F4056985650DD50FB01CF3AFF040191
:102E2000400095EF88FD0300133AD0EFEBFD03005F
:102E300050906056D6EFE1FD030097EF70FD030060
:102E400095EF6AFD030012159EEFD1FD030050D0EF
:102E500050EFC1FD0300D050EFBEFD030098565166
:102E6000D0515004FB00EF17D8FFFF985051D051BC
:102E7000500404014000FB00AFA6905056905650FD
:102E8000985051DD51FB01CFCEFE91561012149493
:102E90005095EF1BFD030012039001509050EF0F6F
:102EA000FD0300985651D051500404014000D0ACAD
:102EB0000450B05056B1568FFF00120EFB00CF5F8A
:102EC000FF985051D05150041122B1568FFE00127C
:102ED0000EFB00CFE2FD985051D0515004110DC2AD
:102EE000035E90567EFB01EFB6D7FFFF0401400062
:102EF000D0AC04569166EFB6FC03001202110E9896
:102F00006650DD50D656FB01CFA7FE11E704400006
:102F1000D0AC0450B05056DD0DFB01CF3AFEDD0AB7
:102F2000FB01CF33FEB5561202110BDD20FB01CFA2
:102F300026FEB75611EF0401C007D0AC0456D0AC42
:102F40000850B0505795A601130397A60199A60102
:102F500059AA8F00FF59C156025AB759B1598FFF6C
:102F6000FF12021123906A58D65A9158091208A0EC
:102F70000857AA0757110F995850B1501F1A05A0AA
:102F800002571102B65711D2013CEF25FC03005045
:102F9000325751D1505114021117DD08FB01CFB740
:102FA000FDDD20FB01CFB0FDDD08FB01CFA9FD1148
:102FB000D804C007C2045ED0AC0456B0EFF3FB03E4
:102FC00000ADFE94A60199A601503C5051CB8F0054
:102FD000FFFFFF51509966513C5152CB8F00FFFFCC
:102FE000FF5251D150511903317801FB00CF30FE0F
:102FF000905057905750915003121895A6011213F4
:10300000DD03FB01CFDFFDDD02FB01EFF6CBFFFFB0
:10301000314D0191570D130791570A1302110DDD20
:103020000DFB01CF32FD313A0131340191570812C5
:10303000103CADFE50DD50DD56FB02CFFAFE311FD5
:103040000191578F7F123D95EF66FB030013259585
:10305000A601131E97A60199A60158AA8F00FF5832
:103060003C5850C156025198416050DD50FB01CF91
:10307000E6FC110D3CADFE50DD50DD56FB02CFB736
:10308000FE31DC009157101217945095EF21FB038D
:103090000012039001509050EF15FB030031C00067
:1030A00091571812193CADFE50DD50DD56FB02CF92
:1030B00086FE95A6011202110211EA31A200915773
:1030C00005120E3CADFE50DD50FB01CF40FE318FAE
:1030D000009157151217DD23FB01CF7BFC3CADFEA1
:1030E00050DD50FB01CF26FE94A6011173915712BB
:1030F0001245DD23FB01CF5FFC3CADFE50DD50FBF4
:1031000001CF0AFEB4583C585099A601513C515287
:10311000CB8F00FFFFFF5251D15051190211163CC5
:103120005850C156025198416050DD50FB01CFB557
:10313000FCB65811D1112999A601503C5051CB8FA2
:1031400000FFFFFF5150C1560251C05150905751DE
:10315000905160985150DD5096A601FB01CF86FC3E
:103160003163FE044000C2145ED0AC0C50B0505627
:1031700090EF40FA0300ADEFB55613329002ADEC7C
:10318000830156ADED3CEF0DFA03005098ADEF51C1
:103190008E515278525050CB8FFEFFFFFF5051D5C9
:1031A000511309DD04FB01EFEECDFFFF1107900184
:1031B000ADEC94ADEDD0AC04ADF0D0AC08ADF6D034
:1031C000EFF4F90300ADFAC3145D50DD50FB01EFDD
:1031D000440D0000B5501202111AD450B556130315
:1031E000D00150DD50FB01EFAECDFFFFB550130213
:1031F000110211D3D45004040000C2045ED0AC0408
:1032000050B050ADFED47EDDEFB0F9030032ADFE1C
:1032100050DD50FB03CF4CFF3C5051D051500404C3
:10322000C000D0AC0450B05056DD02DDEF8CF90385
:1032300000325650DD50FB03CF29FFB050573256B5
:1032400050D0EF7AF90300513CA10C52D1505218E2
:1032500018FB00AF1D325651D0EF5BF9030053D07D
:10326000A31252C052519050613C5751D05150045A
:1032700004010000D0EF43F9030051D452B02053B1
:10328000C06152C00451B753B5531202110211F07C
:10329000788FF05250C05052788FF85250C0505230
:1032A0008B005250985054D054500404C00FC208A0
:1032B0005ED0AC0856D0AC0C50B05057D0EFFFF8F1
:1032C0000300599B8FFF5BAB8FFEFF5750B5501328
:1032D0000AA1EFEEF8030001581102B45801AB8FB8
:1032E000F7FF5750B550121A3C5850D0EFC8F803AA
:1032F00000513CA10452C1520151D150511503312A
:103300001901B158A9081B03311001AB8FFCFF58FC
:1033100050B550130331B6003C5850D0025283527E
:103320002051EF52515050B0505A3C5A50DD50FB92
:1033300001CFC4FEB15AA90C1F03319100D0EF7622
:10334000F80300503C5A51C151A012ADFCAB8FFBA9
:10335000FF5750B550130EFB00CF16FFD0ADFC51F8
:103360009050611169FB00CF08FFD0ADFC51916115
:1033700050135BD0EF40F8030050B0A908A00498A8
:10338000EF31F803005078500151B051ADFAB2ADB1
:10339000FA51AB51EF07F9030050B550130AA8AD2D
:1033A000FAEFF2F703001126B2ADFA50B2EFEAF7E6
:1033B000030051AB5150EFE1F7030098EFF5F7032D
:1033C0000050DD50FB01EFAD020000314AFFB05864
:1033D000EFF0F703003C5850DD50AB8FFCFF585026
:1033E0003C5051C5512050C150EFCFF7030051DD83
:1033F00051DD56FB03BC049550131BAB8FFDFF57EB
:1034000050B5501304B45B110DAB8FFCFF58503C0A
:103410005051D0515004B65831C3FE3C5B51D0518D
:10342000500404010000D0AC0451B05150D0EF8ED4
:10343000F7030051B150A1061A583C5051D0035225
:1034400083522053EF525351523C5251D0EF67F701
:10345000030053D0A31652C052513C5052D00353D4
:1034600083532054EF535452533C5352D0EF47F7F9
:10347000030054D0A41653C05352AB8FF8FF5053DF
:103480003C53548E545578558F8000000053895317
:10349000626104010000D0AC0451B05150B550132A
:1034A0006BD0EF1AF7030051B150A1061A5E3C50E1
:1034B00051D0035283522053EF525351523C525138
:1034C000D0EFF3F6030053D0A31652C052513C5034
:1034D00052D0035383532054EF535452533C53520E
:1034E000D0EFD3F6030054D0A41653C05352AB8F81
:1034F000F8FF50533C53548E545578558F8000003C
:1035000000539253549262528B5254610401000052
:10351000D0AC0450B050513C5150D0035283522093
:1035200053EF525350523C5250D0EF8AF60300539F
:10353000D0A31652C05250996052B25250AB8FF87D
:10354000FF51523C52538E535478548F80000000E8
:1035500052B25053AB5352503C5052D052500404CC
:10356000C003D0AC0450B05056D0EF52F603005018
:10357000B0A00659B05658B08FFFFF57B556120786
:10358000B158591F021135B5561315B7563C565050
:10359000DD50FB01CF77FFB5501305B05657111C16
:1035A000B158591E15B6583C5850DD50FB01CF5D3F
:1035B000FFB5501305B05857110211C0B1578FFF16
:1035C000FF130A3C5750DD50FB01CF57FE3C5751CB
:1035D000D051500404010101C000C2045ED0AC0807
:1035E00056D0AC0C50B050ADFE9966503C5051CB0B
:1035F0008F00FFFFFF5150D1500F147AD0EFB7F575
:10360000030050B0ADFEA004B457D0EFB1F50300F5
:1036100050B1A0068FFF001A2C325750C1561051DE
:10362000994160503C5051CB8F00FFFFFF5150DD5E
:1036300050B657FB01EFEAFDFFFFB1570F1502111E
:103640000211D61131325751D05150C05051C1568C
:10365000515032A01051DD51B657FB01EF3DD2FF62
:10366000FF3C5051DD51FB01EFB7FDFFFFB15707A4
:103670001502110211CF0401C001C2185ED0AC04C2
:10368000509050563CEF12F50300509856518E5111
:1036900052785250509050589258588A8FFE5891F4
:1036A000EF11F5030056120695581202117F94ADE2
:1036B000EC9056509050ADEF9050EFF7F403009916
:1036C00056503C5051CB8F00FFFFFF5150D1500F4F
:1036D0001509DD02FB01EFBFC8FFFF8D0158ADEDFD
:1036E000C3145D50DD50FB01EF2B080000D0ADFA94
:1036F00050D050EFC1F40300D55013021111DD0377
:10370000FB01EF93C8FFFFB5501302110211D1D096
:10371000EFA4F4030050D0A00AEF9FF40300D0EF11
:1037200095F4030050D0A00EEF94F40300955812C6
:1037300003319D00D0EF87F4030050B0A00657324C
:103740005750DD50FB01EF49FDFFFFB757B1578FD1
:10375000FFFF1202110211E7C3165D50DD50D0EFDA
:103760005DF403005098A00351C1510150D0505155
:10377000C05151C05051C05150DD50D0EF40F40302
:1037800000503CA00851C1510150DD50FB03EFE156
:10379000D0FFFFB05057B5ADEA1302B65701B75787
:1037A000325750DD50FB01EF78FCFFFFB557120296
:1037B000110211EADD0ED47E9FCF1CFEFB03EFE960
:1037C000FAFFFF98565078500151A851EFCBF30300
:1037D00000040000D0AC0450D0AC0851D0AC0C5365
:1037E000B05352B752B1528FFFFF120211099060CD
:1037F00061D650D65111EC044000C2045ED0AC0436
:1038000052D0AC0851D0AC0C509050ADFFB00C531E
:103810008D3F62548D6162558B8F805550D651D645
:10382000529550130795541303D45004B753B5530E
:103830001202110211DA95ADFF133E91623F13237C
:103840008D616255985550D0EF74F303005598A5DB
:103850000456D25655D25056CB565550D550130318
:10386000D45004C00252C002518D6162508B8FC08F
:10387000505595551303D45004D001500404C00191
:10388000C2045ED0AC0456D0AC0C50B050ADFEDDDE
:1038900001DDAC08DD56FB03CF5DFF90505890581A
:1038A000509550132B90A60C57DD20DD56DDAC084B
:1038B000FB03CF1DFF9057A60C888F80A60E98EFB4
:1038C000F2F203005078500151A851EFD0F30300F9
:1038D000985851D0515004044000C2145E9003AD7A
:1038E000ECC3145D50DD50FB01EF2A060000B05020
:1038F00056B05650B55012021111DD01FB01EF9781
:10390000C6FFFFB5501302110211D63C5651D051DB
:1039100050040401C00FC2045ED0AC0456D0AC0801
:1039200057D0AC0C50B050ADFEDD01DD57DD56FB7D
:1039300003CFC4FE95501203311401C1561059C172
:1039400057105AD0EF78F2030050B1A0068FFF0055
:103950001A2DB01058956A13139569130A916A6964
:10396000130331D3001103906A69110390696AD679
:1039700059D65AB758B5581202110211D8112DB0A4
:103980000858B56A1313B569130AB16A691303318C
:10399000A6001103B06A691103B0696AC00259C078
:1039A000025AB758B5581202110211D6DD56FB0162
:1039B000EF83C9FFFFB0505B8B8FE0A70C5099508D
:1039C000ADFCB15BADFC1A2BB15BADFC122E99A620
:1039D0000F503C5051CB8F00FFFFFF515099A70F64
:1039E000513C5152CB8F00FFFFFF5251D150511427
:1039F00002110990A60FA70F905BA70C90A60DA728
:103A00000D8B8F7FA709509550130F32ADFE50DDFF
:103A100050DD56FB02EF50C4FFFF8A8F80A70B32A8
:103A2000ADFE50788FFE5051325150DD50FB01EF0A
:103A3000ECF7FFFFD001500498EF78F103005078C5
:103A4000500151A851EF4EF10300D450041103D49A
:103A5000500404010000FB00CF7DFED0AC04508B6D
:103A60008F7FA00E5195511303D45004D47EDDAC4A
:103A7000049FCF9FFEFB03EF30F8FFFF3C5051D077
:103A8000515004040000C2045ED0AC0C50B050ADE4
:103A9000FED0015004040000C2045ED0AC0C50B053
:103AA00050ADFEDD01DDAC08DDAC04FB03CF48FD0D
:103AB000985051D051500404C001D0AC0456D0AC41
:103AC0000850B0505791663F122498EFE7F003007A
:103AD00050DD50FB01CFA0FB3C5750DD50DD569F21
:103AE000AFA2FB03EFC3F7FFFFB05058112ADDACC4
:103AF0000CFB01EFE8BFFFFF91A60C3F130394A658
:103B00000C94A60E3C5750DD50DD569FAF88FB034A
:103B1000EF97F7FFFFB050589A8F807EDDEFA5F04A
:103B20000300DDEF95F00300FB03CFA5FC3C5851EB
:103B3000D05150040401C00FD0AC0456D0AC08578B
:103B4000D0AC0C50B05058945B91678FE512039045
:103B5000015B905B5095501364C1560F59B0115AD8
:103B60009469D659B75AB55A1202110211F2DD20E2
:103B7000DD57DD56FB03CF59FC325850788FFE508D
:103B800051325150DD50FB01EF93F6FFFF32585098
:103B9000D0EF23F00300513CA10452D15052150B39
:103BA000D0EF13F0030050B058A00498EF05F003D5
:103BB000005078500151A851EFE3F00300985B5199
:103BC000D05150040401C007D0AC0456D0AC085703
:103BD000D0AC0C50B05058D47EDD57DD56FB03CF2F
:103BE00016FC90505A905A5095501203319F008BFA
:103BF0008F7FA709509550130E325850DD50DD5677
:103C0000FB02EF63C2FFFF921A67325850788FFEB3
:103C10005051325150DD50FB01EF02F6FFFFD0EF63
:103C20009DEF030050B1A0068FFF001A2EB010596F
:103C3000B759325950C1571051994160503C5051B9
:103C4000CB8F00FFFFFF5150DD50FB01EF43F8FF2A
:103C5000FFB5591202110211D71133B00859B759E3
:103C6000325951D05150C05051C157515032A0100B
:103C700051DD51FB01EF24CCFFFF3C5051DD51FBE6
:103C800001EF0EF8FFFFB5591202110211D0985A38
:103C900051D051500404C00FC2045ED0AC0456D0C1
:103CA000AC0857D0AC0C50B05058D47EDD57DD5620
:103CB000FB03CF43FB9050ADFF90ADFF50955013E9
:103CC0004D8B8F7FA709509550130E325850DD5001
:103CD000DD56FB02EF91C1FFFFC156115AC15701DA
:103CE0005BB00B598B8F806A5090506BD65AD65B65
:103CF000B759B5591202110211EA325850788FFEA5
:103D00005051325150DD50FB01EF12F5FFFF98ADDD
:103D1000FF51D05150040401C003D0AC0456D0ACC4
:103D20000857D0AC0C50B05058D47EDD57DD56FB50
:103D300003CFC4FA90505990595095501327DD0B7A
:103D4000C1570150DD50C1560150DD50FB03CF81FA
:103D5000FA325850788FFE5051325150DD50FB01ED
:103D6000EFBBF4FFFF985951D051500404010000FB
:103D7000D0AC04518B8FE0A10C5098505278075270
:103D8000528B8FC0A10E50985053780C5350C8508E
:103D900052D0525004044000C2045ED0AC0456DD40
:103DA00056FB01AFC999A620513C5152CB8F00FF61
:103DB000FFFF5251C15150ADFC90ADFDA62190AD19
:103DC000FEA62290ADFFA6230401C001C2085ED06A
:103DD000AC0457D0AC0856D0AC0C50B050ADFED4AB
:103DE0007EDD56DD57FB03CF0EFA905058905850A9
:103DF0009550132ADD56FB01CF73FF99A60F513C56
:103E00005152CB8F00FFFFFF5251C15150ADF8907E
:103E1000ADF9A72190ADFAA72290ADFBA723985842
:103E200051D051500404C000C2085ED0AC0456D436
:103E3000ADFCB457D4ADF8325750DD50DD569FAFCE
:103E400089FB03EF64F4FFFFB1508FFE001B0211EA
:103E50002090A621ADF990A622ADFA90A623ADFB45
:103E6000D1ADF8ADFC1505D0ADF8ADFCB0015711E2
:103E7000C690ADFDA62190ADFEA62290ADFFA62373
:103E80000401C007C2085ED0AC04509050ADFF984A
:103E9000ADFF50DD50FB01CFDEF7D456D0EF17ED6C
:103EA000030050D0A01657B458B45A325A50D0EF2D
:103EB0000DED0300513CA10652D1505215021140A4
:103EC000B558120BB08F008058B26759C00257B274
:103ED0005951AB515850B5501310D656D0EFDFECB6
:103EE00003005098A00351C051563C5850D0015285
:103EF00083522051EF52515050B05058B65A11AB26
:103F0000D056ADF8DD04DDEFBBEC0300C3085D5017
:103F1000DD50FB03CFBBF804C003C2045ED0AC0489
:103F200056B459986650CF5000030B00320032004F
:103F3000D60031D50090A603EF53EC0300C2035E18
:103F400090A6017EC2035E90EF43EC03007EFB026D
:103F5000EF8BC7FFFFD050A60E31AE0091EF2EECD5
:103F60000300A603131DC2035E947E90A603509027
:103F700050EF1AEC0300C2035E90507EFB02EF5D2F
:103F8000C7FFFFD0A60E57D0A70E58C3025D50DD65
:103F9000503C6850DD50DDA604FB03EFD4C8FFFFA2
:103FA000A150A80E51C2025EB0517EFB01EF5CC76A
:103FB000FFFFDD67C2025EB0ADFE7EFB02EF54C8BC
:103FC000FFFFC2025EB0507EFB01EF4BC7FFFFDD7B
:103FD000A60AFB01EF4DC7FFFF916601120CFB0023
:103FE000EF4DC7FFFFB05059111499A60150C202FE
:103FF0005EB0507EFB01EFA5C7FFFFB05059110A1C
:10400000FB00EF61C8FFFFB050593C5951D05150EF
:104010000404010100000000000000000000000096
:104020000000000000000000000000000000000090
:104030000000000000000000000000000000000080
:104040000000000000000000000000000000000070
:104050000000000000000000000000000000000060
:10600000FC0A10003C0B1000C90C10003031323378
:10601000343536373839616263646566001A0003C7
:10602000070000F2003F0000001000020000000026
:1060300006000C001200180004000A0010001600F0
:10604000020008000E001400010007000D001300FC
:10605000190005000B0011001700030009000F00D4
:1060600015002E501000000000000000403D1400FC
:106070001D501000C83D1400983C140001000000A1
:10608000000000FE0F000000FFFFFFFF0201000004
:1060900000571D10008E1C10000000551D10000040
:1060A00000000000000000007A1D10000000751DB7
:1060B00010000900701D100001006C1D100002008E
:1060C000681D10000300631D100004005C1D10001B
:1060D000060000000000FFFF4E4F4E2D5359535451
:1060E000454D2046494C452853292045584953548D
:1060F0002400456E7465722046696C656E616D653D
:106100003A202400456E746572204F6C64204E6105
:106110006D653A202400456E746572204E657720C7
:106120004E616D653A20240046696C6520616C7291
:10613000656164792065786973747324004E6F20FB
:1061400066696C6524004E6F2077696C64636172C8
:10615000642066696C656E616D6573240053796EA9
:106160007461783A2052454E204E657766696C65B9
:106170003D4F6C6466696C652400436F6E6669729E
:106180006D28592F4E293F202400456E74657220DA
:1061900055736572204E6F3A2024002E53554220CD
:1061A00066696C65206E6F7420666F756E6424007E
:1061B0005573657220232072616E676520697320B4
:1061C0005B302D31355D2400546F6F206D616E7929
:1061D00020617267756D656E74733A202400496E94
:1061E00073756666696369656E74206D656D6F723F
:1061F00079206F72206261642066696C6520686531
:1062000061646572240052656164206572726F7208
:10621000206F6E2070726F6772616D206C6F6164A9
:1062200024004261642072656C6F636174696F6EF3
:1062300020696E666F726D6174696F6E2062697439
:1062400073240050726F6772616D206C6F616420FF
:106250006572726F7224003E3C2E2C3D5B5D3B7C70
:10626000262F28292B2D5C00E5E5E5E5E5E5E5E5AC
:10627000E5E5E5E5E5E5E5E5E5E5E5E5E5E5E5E5CE
:10628000E5E5E5E5E5E5E5E5E5E5E5E5E5E5E5E5BE
:10629000E5E5E5E5E5E5E5E5E5E5E5E5E5E5E5E5AE
:1062A000E5E5E5E5E5E5E5E5E5E5E5E5E5E5E5E59E
:107C6000E5E5E5E5E5E5E5E50042444F534920203B
:107C70002053524300180064020304050607080954
:107C80000A0B0C0D0E0000000042444F5320202030
:107C900020504C4D000000800F10111213141516C7
:107CA0001718191A1B1C1D1E0042444F5320202078
:107CB00020504C4D0110007D1F2021222324252619
:107CC0002728292A2B2C2D2E00424F4F4745522082
:107CD0002020202000000000000000000000000024
:107CE0000000000000000000E5E5E5E5E5E5E5E56C
:107CF000E5E5E5E5E5E5E5E5E5E5E5E5E5E5E5E534
:107D0000E5E5E5E5E5E5E5E5E5E5E5E5E5E5E5E523
:107D1000E5E5E5E5E5E5E5E5E5E5E5E5E5E5E5E513
:107D2000E5E5E5E5E5E5E5E5E5E5E5E5E5E5E5E503
:107D3000E5E5E5E5E5E5E5E5E5E5E5E5E5E5E5E5F3
:107D4000E5E5E5E5E5E5E5E5E5E5E5E5E5E5E5E5E3
:107D5000E5E5E5E5E5E5E5E5E5E5E5E5E5E5E5E5D3
:107D6000E5E5E5E5E5E5E5E5E5E5E5E5E5E5E5E5C3
:107D7000E5E5E5E5E5E5E5E5E5E5E5E5E5E5E5E5B3
:107D8000E5E5E5E5E5E5E5E5E5E5E5E5E5E5E5E5A3
:107D9000E5E5E5E5E5E5E5E5E5E5E5E5E5E5E5E593
:107DA000E5E5E5E5E5E5E5E5E5E5E5E5E5E5E5E583
:107DB000E5E5E5E5E5E5E5E5E5E5E5E5E5E5E5E573
:107DC000E5E5E5E5E5E5E5E5E5E5E5E5E5E5E5E563
:107DD000E5E5E5E5E5E5E5E5E5E5E5E5E5E5E5E553
:107DE000E5E5E5E5E5E5E5E5454420494E20410DBD
:107DF0000A095055424C494309545241434B3009FA
:107E00003B4D4F564520545241434B204845414439
:107E100020544F20545241434B20300D0A095055F5
:107E2000424C49430953454C4449534B093B534544
:107E30004C454354204449534B2044524956452015
:107E4000474956454E2042592052454720430D0A86
:107E5000095055424C49430953454C54524B093B38
:107E600053454C4543542054E5E5E5E5E5E5E5E5B6
:107E7000E5E5E5E5E5E5E5E5E5E5E5E5E5E5E5E5B2
:107E8000E5E5E5E5E5E5E5E5E5E5E5E5E5E5E5E5A2
:107E9000E5E5E5E5E5E5E5E5E5E5E5E5E5E5E5E592
:107EA000E5E5E5E5E5E5E5E5E5E5E5E5E5E5E5E582
:107EB000E5E5E5E5E5E5E5E5E5E5E5E5E5E5E5E572
:107EC000E5E5E5E5E5E5E5E5E5E5E5E5E5E5E5E562
:107ED000E5E5E5E5E5E5E5E5E5E5E5E5E5E5E5E552
:107EE000E5E5E5E5E5E5E5E549410D0A3B0D0A3B3C
:107EF0000945585445524E414C4C59204445464939
:107F00004E4544204449534B204D4F4E49544F5207
:107F100020454E54525920504F494E54530D0A0992
:107F2000455854524E0944534B4D4F4E0D0A3B0D8C
:107F30000A3B095055424C4943414C4C5920444559
:107F400046494E454420454E54525920414E442006
:107F50004558495420504152414D45544552530DC6
:107F60000A095055424C49430042444F53202020B7
:107F7000204F424A006300283B59616D6E000000AB
:107F800000000000000000000042444F5320202069
:107F9000204C5354000000803C3D3E3F4041424352
:107FA0004445464748494A4B0042444F532020200D
:107FB000204C5354010000804C4D4E4F50515253B1
:107FC00054555657585A5B5C0042444F532020206A
:107FD000204C53540219007B5D5E5F6062636465F0
:107FE000666768696A6B6C6FE5E5E5E5E5E5E5E51B
:107FF000E5E5E5E5E5E5E5E5E5E5E5E5E5E5E5E531
:10800000E5E5E5E5E5E5E5E5E5E5E5E5E5E5E5E520
:10801000E5E5E5E5E5E5E5E5E5E5E5E5E5E5E5E510
:10802000E5E5E5E5E5E5E5E5E5E5E5E5E5E5E5E500
:10803000E5E5E5E5E5E5E5E5E5E5E5E5E5E5E5E5F0
:10804000E5E5E5E5E5E5E5E5E5E5E5E5E5E5E5E5E0
:10805000E5E5E5E5E5E5E5E5E5E5E5E5E5E5E5E5D0
:10806000E5E5E5E5E5E5E5E5E5E5E5E5E5E5E5E5C0
:10807000E5E5E5E5E5E5E5E5E5E5E5E5E5E5E5E5B0
:10808000E5E5E5E5E5E5E5E5E5E5E5E5E5E5E5E5A0
:10809000E5E5E5E5E5E5E5E5E5E5E5E5E5E5E5E590
:1080A000E5E5E5E5E5E5E5E5E5E5E5E5E5E5E5E580
:1080B000E5E5E5E5E5E5E5E5E5E5E5E5E5E5E5E570
:1080C000E5E5E5E5E5E5E5E5E5E5E5E5E5E5E5E560
:1080D000E5E5E5E5E5E5E5E5E5E5E5E5E5E5E5E550
:1080E000E5E5E5E5E5E5E5E55241434B2047495641
:1080F000454E2042592052454720430D0A0950550C
:10810000424C49430953454C534543093B53454C65
:1081100045435420534543544F5220474956454EFA
:108120002042592052454720430D0A095055424CE0
:1081300049430953454C444D41093B534554204460
:108140004D41204144445245535320544F20414413
:108150004420494E2042202620430D0A0950554212
:108160004C49430952454144E5E5E5E5E5E5E5E5EA
:10817000E5E5E5E5E5E5E5E5E5E5E5E5E5E5E5E5AF
:10818000E5E5E5E5E5E5E5E5E5E5E5E5E5E5E5E59F
:10819000E5E5E5E5E5E5E5E5E5E5E5E5E5E5E5E58F
:1081A000E5E5E5E5E5E5E5E5E5E5E5E5E5E5E5E57F
:1081B000E5E5E5E5E5E5E5E5E5E5E5E5E5E5E5E56F
:1081C000E5E5E5E5E5E5E5E5E5E5E5E5E5E5E5E55F
:1081D000E5E5E5E5E5E5E5E5E5E5E5E5E5E5E5E54F
:1081E000E5E5E5E5E5E5E5E50946554E43093B46A8
:1081F000554E4354494F4E204E554D4245520D0A5F
:10820000095055424C494309494E464F093B494E96
:10821000464F524D4154494F4E20414444524553DC
:108220005320494E2043502F4D2043414C4C0D0AC2
:10823000095055424C49430941524554093B524566
:108240005455524E45442056414C55450D0A09504F
:1082500055424C494309424F4F54093B5741524DF7
:108260002053544152540D0A0048454C4C4F202095
:10827000205641580000003C2F303132333435361F
:10828000000000000000000000424F4F4745522010
:108290002056415800000001370000000000000097
:1082A0000000000000000000E5E5E5E5E5E5E5E5A6
:1082B000E5E5E5E5E5E5E5E5E5E5E5E5E5E5E5E56E
:1082C000E5E5E5E5E5E5E5E5E5E5E5E5E5E5E5E55E
:1082D000E5E5E5E5E5E5E5E5E5E5E5E5E5E5E5E54E
:1082E000E5E5E5E5E5E5E5E5E5E5E5E5E5E5E5E53E
:1082F000E5E5E5E5E5E5E5E5E5E5E5E5E5E5E5E52E
:10830000E5E5E5E5E5E5E5E5E5E5E5E5E5E5E5E51D
:10831000E5E5E5E5E5E5E5E5E5E5E5E5E5E5E5E50D
:10832000E5E5E5E5E5E5E5E5E5E5E5E5E5E5E5E5FD
:10833000E5E5E5E5E5E5E5E5E5E5E5E5E5E5E5E5ED
:10834000E5E5E5E5E5E5E5E5E5E5E5E5E5E5E5E5DD
:10835000E5E5E5E5E5E5E5E5E5E5E5E5E5E5E5E5CD
:10836000E5E5E5E5E5E5E5E5E5E5E5E5E5E5E5E5BD
:10837000E5E5E5E5E5E5E5E5E5E5E5E5E5E5E5E5AD
:10838000E5E5E5E5E5E5E5E5E5E5E5E5E5E5E5E59D
:10839000E5E5E5E5E5E5E5E5E5E5E5E5E5E5E5E58D
:1083A000E5E5E5E5E5E5E5E5E5E5E5E5E5E5E5E57D
:1083B000E5E5E5E5E5E5E5E5E5E5E5E5E5E5E5E56D
:1083C000E5E5E5E5E5E5E5E5E5E5E5E5E5E5E5E55D
:1083D000E5E5E5E5E5E5E5E5E5E5E5E5E5E5E5E54D
:1083E000E5E5E5E5E5E5E5E54449534B093B52455F
:1083F0004144204449534B20534543544F520D0AA6
:10840000095055424C494309575249544544495330
:108410004B093B5752495445204449534B2053453F
:1084200043544F520D0A3B0D0A09444209302C3087
:108430002C302C302C302C300D0A3B0D0A3B0D0A11
:108440003B0D0A3B09454E544552204845524520B4
:1084500046524F4D205448452055534552275320EE
:1084600050524F4752414D20E5E5E5E5E5E5E5E5AC
:10847000E5E5E5E5E5E5E5E5E5E5E5E5E5E5E5E5AC
:10848000E5E5E5E5E5E5E5E5E5E5E5E5E5E5E5E59C
:10849000E5E5E5E5E5E5E5E5E5E5E5E5E5E5E5E58C
:1084A000E5E5E5E5E5E5E5E5E5E5E5E5E5E5E5E57C
:1084B000E5E5E5E5E5E5E5E5E5E5E5E5E5E5E5E56C
:1084C000E5E5E5E5E5E5E5E5E5E5E5E5E5E5E5E55C
:1084D000E5E5E5E5E5E5E5E5E5E5E5E5E5E5E5E54C
:1084E000E5E5E5E5E5E5E5E5095055424C49430993
:1084F000434F4E524459093B52455455524E532016
:10850000434F4E534F4C45205354415455530D0A3D
:10851000095055424C494309434F4E494E45093B8A
:1085200052455455524E53204348415241435445BD
:108530005220494E20410D0A095055424C494309E9
:10854000434F4E43484152093B434F4E534F4C45D6
:10855000204348415241435445522053454E5420F4
:1085600046524F4D20430D0AE5E5E5E5E5E5E5E535
:10857000E5E5E5E5E5E5E5E5E5E5E5E5E5E5E5E5AB
:10858000E5E5E5E5E5E5E5E5E5E5E5E5E5E5E5E59B
:10859000E5E5E5E5E5E5E5E5E5E5E5E5E5E5E5E58B
:1085A000E5E5E5E5E5E5E5E5E5E5E5E5E5E5E5E57B
:1085B000E5E5E5E5E5E5E5E5E5E5E5E5E5E5E5E56B
:1085C000E5E5E5E5E5E5E5E5E5E5E5E5E5E5E5E55B
:1085D000E5E5E5E5E5E5E5E5E5E5E5E5E5E5E5E54B
:1085E000E5E5E5E5E5E5E5E5094353454709093BEB
:1085F000494E434C554445205749544820434F4425
:1086000045205345474D454E540D0A4249415309B3
:1086100045515509303135303348093B41444452C6
:10862000455353204F462057424F4F5420454E54F8
:1086300052592052454C415449564520544F203000
:108640003030300D0A5353495A45094551550932C6
:1086500034093B3234204C4556454C205354414359
:108660004B0D0A5245424F4FE5E5E5E5E5E5E5E509
:10867000E5E5E5E5E5E5E5E5E5E5E5E5E5E5E5E5AA
:10868000E5E5E5E5E5E5E5E5E5E5E5E5E5E5E5E59A
:10869000E5E5E5E5E5E5E5E5E5E5E5E5E5E5E5E58A
:1086A000E5E5E5E5E5E5E5E5E5E5E5E5E5E5E5E57A
:1086B000E5E5E5E5E5E5E5E5E5E5E5E5E5E5E5E56A
:1086C000E5E5E5E5E5E5E5E5E5E5E5E5E5E5E5E55A
:1086D000E5E5E5E5E5E5E5E5E5E5E5E5E5E5E5E54A
:1086E000E5E5E5E5E5E5E5E5574954482046554E1D
:1086F0004354494F4E204E554D42455220494E203D
:10870000432C0D0A3B09414E4420494E464F524DE1
:108710004154494F4E204144445245535320494E01
:1087200020442C452E202043414C4C2054484520C9
:10873000504C2F4D204449534B204D4F4E49544FE0
:10874000520D0A094A4D500942444F5345093B50C6
:1087500041535420504152414D4554455220424CC2
:108760004F434B0D0A3B0D0AE5E5E5E5E5E5E5E59B
:10877000E5E5E5E5E5E5E5E5E5E5E5E5E5E5E5E5A9
:10878000E5E5E5E5E5E5E5E5E5E5E5E5E5E5E5E599
:10879000E5E5E5E5E5E5E5E5E5E5E5E5E5E5E5E589
:1087A000E5E5E5E5E5E5E5E5E5E5E5E5E5E5E5E579
:1087B000E5E5E5E5E5E5E5E5E5E5E5E5E5E5E5E569
:1087C000E5E5E5E5E5E5E5E5E5E5E5E5E5E5E5E559
:1087D000E5E5E5E5E5E5E5E5E5E5E5E5E5E5E5E549
:1087E000E5E5E5E5E5E5E5E5095055424C49430990
:1087F0004C53544F5554093B4C4953542043484122
:108800005241435445522053454E542046524F4DF9
:1088100020430D0A095055424C49430950554E4FCB
:108820005554093B50554E4348204348415241431B
:108830005445522053454E542046524F4D20430D2F
:108840000A095055424C49430952454144494E0991
:108850003B524541444552204348415241435445CF
:10886000522052455455524EE5E5E5E5E5E5E5E58E
:10887000E5E5E5E5E5E5E5E5E5E5E5E5E5E5E5E5A8
:10888000E5E5E5E5E5E5E5E5E5E5E5E5E5E5E5E598
:10889000E5E5E5E5E5E5E5E5E5E5E5E5E5E5E5E588
:1088A000E5E5E5E5E5E5E5E5E5E5E5E5E5E5E5E578
:1088B000E5E5E5E5E5E5E5E5E5E5E5E5E5E5E5E568
:1088C000E5E5E5E5E5E5E5E5E5E5E5E5E5E5E5E558
:1088D000E5E5E5E5E5E5E5E5E5E5E5E5E5E5E5E548
:1088E000E5E5E5E5E5E5E5E55409455155093030AF
:1088F000303048093B5245424F4F5420535953544E
:10890000454D0D0A3B0942444F5320494E544552B0
:1089100046414345204D4F44554C450D0A3B0D0AF9
:108920003B09434F50595249474854202843292076
:1089300031393738204449474954414C2052455336
:1089400045415243480D0A3B09424F5820353739BB
:1089500020504143494649432047524F56452C2019
:1089600043414C49464F524E095055424C494309E8
:108970005045524552520D0A095055424C4943093F
:1089800053454C4552520D0A095055424C49430932
